{
  "_format": "hh-sol-artifact-1",
  "contractName": "MentalToken",
  "sourceName": "contracts/MentalToken.sol",
  "abi": [
    {
      "inputs": [
        {
          "internalType": "uint256",
          "name": "initialSupply",
          "type": "uint256"
        },
        {
          "internalType": "uint256",
          "name": "capSupply",
          "type": "uint256"
        }
      ],
      "stateMutability": "nonpayable",
      "type": "constructor"
    },
    {
      "inputs": [],
      "name": "ECDSAInvalidSignature",
      "type": "error"
    },
    {
      "inputs": [
        {
          "internalType": "uint256",
          "name": "length",
          "type": "uint256"
        }
      ],
      "name": "ECDSAInvalidSignatureLength",
      "type": "error"
    },
    {
      "inputs": [
        {
          "internalType": "bytes32",
          "name": "s",
          "type": "bytes32"
        }
      ],
      "name": "ECDSAInvalidSignatureS",
      "type": "error"
    },
    {
      "inputs": [
        {
          "internalType": "uint256",
          "name": "increasedSupply",
          "type": "uint256"
        },
        {
          "internalType": "uint256",
          "name": "cap",
          "type": "uint256"
        }
      ],
      "name": "ERC20ExceededCap",
      "type": "error"
    },
    {
      "inputs": [
        {
          "internalType": "address",
          "name": "spender",
          "type": "address"
        },
        {
          "internalType": "uint256",
          "name": "allowance",
          "type": "uint256"
        },
        {
          "internalType": "uint256",
          "name": "needed",
          "type": "uint256"
        }
      ],
      "name": "ERC20InsufficientAllowance",
      "type": "error"
    },
    {
      "inputs": [
        {
          "internalType": "address",
          "name": "sender",
          "type": "address"
        },
        {
          "internalType": "uint256",
          "name": "balance",
          "type": "uint256"
        },
        {
          "internalType": "uint256",
          "name": "needed",
          "type": "uint256"
        }
      ],
      "name": "ERC20InsufficientBalance",
      "type": "error"
    },
    {
      "inputs": [
        {
          "internalType": "address",
          "name": "approver",
          "type": "address"
        }
      ],
      "name": "ERC20InvalidApprover",
      "type": "error"
    },
    {
      "inputs": [
        {
          "internalType": "uint256",
          "name": "cap",
          "type": "uint256"
        }
      ],
      "name": "ERC20InvalidCap",
      "type": "error"
    },
    {
      "inputs": [
        {
          "internalType": "address",
          "name": "receiver",
          "type": "address"
        }
      ],
      "name": "ERC20InvalidReceiver",
      "type": "error"
    },
    {
      "inputs": [
        {
          "internalType": "address",
          "name": "sender",
          "type": "address"
        }
      ],
      "name": "ERC20InvalidSender",
      "type": "error"
    },
    {
      "inputs": [
        {
          "internalType": "address",
          "name": "spender",
          "type": "address"
        }
      ],
      "name": "ERC20InvalidSpender",
      "type": "error"
    },
    {
      "inputs": [
        {
          "internalType": "uint256",
          "name": "deadline",
          "type": "uint256"
        }
      ],
      "name": "ERC2612ExpiredSignature",
      "type": "error"
    },
    {
      "inputs": [
        {
          "internalType": "address",
          "name": "signer",
          "type": "address"
        },
        {
          "internalType": "address",
          "name": "owner",
          "type": "address"
        }
      ],
      "name": "ERC2612InvalidSigner",
      "type": "error"
    },
    {
      "inputs": [],
      "name": "EnforcedPause",
      "type": "error"
    },
    {
      "inputs": [],
      "name": "ExpectedPause",
      "type": "error"
    },
    {
      "inputs": [
        {
          "internalType": "address",
          "name": "account",
          "type": "address"
        },
        {
          "internalType": "uint256",
          "name": "currentNonce",
          "type": "uint256"
        }
      ],
      "name": "InvalidAccountNonce",
      "type": "error"
    },
    {
      "inputs": [],
      "name": "InvalidShortString",
      "type": "error"
    },
    {
      "inputs": [
        {
          "internalType": "address",
          "name": "owner",
          "type": "address"
        }
      ],
      "name": "OwnableInvalidOwner",
      "type": "error"
    },
    {
      "inputs": [
        {
          "internalType": "address",
          "name": "account",
          "type": "address"
        }
      ],
      "name": "OwnableUnauthorizedAccount",
      "type": "error"
    },
    {
      "inputs": [
        {
          "internalType": "string",
          "name": "str",
          "type": "string"
        }
      ],
      "name": "StringTooLong",
      "type": "error"
    },
    {
      "anonymous": false,
      "inputs": [
        {
          "indexed": true,
          "internalType": "address",
          "name": "owner",
          "type": "address"
        },
        {
          "indexed": true,
          "internalType": "address",
          "name": "spender",
          "type": "address"
        },
        {
          "indexed": false,
          "internalType": "uint256",
          "name": "value",
          "type": "uint256"
        }
      ],
      "name": "Approval",
      "type": "event"
    },
    {
      "anonymous": false,
      "inputs": [],
      "name": "EIP712DomainChanged",
      "type": "event"
    },
    {
      "anonymous": false,
      "inputs": [
        {
          "indexed": true,
          "internalType": "address",
          "name": "previousOwner",
          "type": "address"
        },
        {
          "indexed": true,
          "internalType": "address",
          "name": "newOwner",
          "type": "address"
        }
      ],
      "name": "OwnershipTransferred",
      "type": "event"
    },
    {
      "anonymous": false,
      "inputs": [
        {
          "indexed": false,
          "internalType": "address",
          "name": "account",
          "type": "address"
        }
      ],
      "name": "Paused",
      "type": "event"
    },
    {
      "anonymous": false,
      "inputs": [
        {
          "indexed": true,
          "internalType": "address",
          "name": "from",
          "type": "address"
        },
        {
          "indexed": true,
          "internalType": "address",
          "name": "to",
          "type": "address"
        },
        {
          "indexed": false,
          "internalType": "uint256",
          "name": "value",
          "type": "uint256"
        }
      ],
      "name": "Transfer",
      "type": "event"
    },
    {
      "anonymous": false,
      "inputs": [
        {
          "indexed": false,
          "internalType": "address",
          "name": "account",
          "type": "address"
        }
      ],
      "name": "Unpaused",
      "type": "event"
    },
    {
      "inputs": [],
      "name": "DOMAIN_SEPARATOR",
      "outputs": [
        {
          "internalType": "bytes32",
          "name": "",
          "type": "bytes32"
        }
      ],
      "stateMutability": "view",
      "type": "function"
    },
    {
      "inputs": [
        {
          "internalType": "address",
          "name": "owner",
          "type": "address"
        },
        {
          "internalType": "address",
          "name": "spender",
          "type": "address"
        }
      ],
      "name": "allowance",
      "outputs": [
        {
          "internalType": "uint256",
          "name": "",
          "type": "uint256"
        }
      ],
      "stateMutability": "view",
      "type": "function"
    },
    {
      "inputs": [
        {
          "internalType": "address",
          "name": "spender",
          "type": "address"
        },
        {
          "internalType": "uint256",
          "name": "value",
          "type": "uint256"
        }
      ],
      "name": "approve",
      "outputs": [
        {
          "internalType": "bool",
          "name": "",
          "type": "bool"
        }
      ],
      "stateMutability": "nonpayable",
      "type": "function"
    },
    {
      "inputs": [
        {
          "internalType": "address",
          "name": "account",
          "type": "address"
        }
      ],
      "name": "balanceOf",
      "outputs": [
        {
          "internalType": "uint256",
          "name": "",
          "type": "uint256"
        }
      ],
      "stateMutability": "view",
      "type": "function"
    },
    {
      "inputs": [
        {
          "internalType": "uint256",
          "name": "value",
          "type": "uint256"
        }
      ],
      "name": "burn",
      "outputs": [],
      "stateMutability": "nonpayable",
      "type": "function"
    },
    {
      "inputs": [
        {
          "internalType": "address",
          "name": "account",
          "type": "address"
        },
        {
          "internalType": "uint256",
          "name": "value",
          "type": "uint256"
        }
      ],
      "name": "burnFrom",
      "outputs": [],
      "stateMutability": "nonpayable",
      "type": "function"
    },
    {
      "inputs": [],
      "name": "cap",
      "outputs": [
        {
          "internalType": "uint256",
          "name": "",
          "type": "uint256"
        }
      ],
      "stateMutability": "view",
      "type": "function"
    },
    {
      "inputs": [],
      "name": "decimals",
      "outputs": [
        {
          "internalType": "uint8",
          "name": "",
          "type": "uint8"
        }
      ],
      "stateMutability": "view",
      "type": "function"
    },
    {
      "inputs": [],
      "name": "eip712Domain",
      "outputs": [
        {
          "internalType": "bytes1",
          "name": "fields",
          "type": "bytes1"
        },
        {
          "internalType": "string",
          "name": "name",
          "type": "string"
        },
        {
          "internalType": "string",
          "name": "version",
          "type": "string"
        },
        {
          "internalType": "uint256",
          "name": "chainId",
          "type": "uint256"
        },
        {
          "internalType": "address",
          "name": "verifyingContract",
          "type": "address"
        },
        {
          "internalType": "bytes32",
          "name": "salt",
          "type": "bytes32"
        },
        {
          "internalType": "uint256[]",
          "name": "extensions",
          "type": "uint256[]"
        }
      ],
      "stateMutability": "view",
      "type": "function"
    },
    {
      "inputs": [
        {
          "internalType": "address",
          "name": "to",
          "type": "address"
        },
        {
          "internalType": "uint256",
          "name": "amount",
          "type": "uint256"
        }
      ],
      "name": "mint",
      "outputs": [],
      "stateMutability": "nonpayable",
      "type": "function"
    },
    {
      "inputs": [],
      "name": "name",
      "outputs": [
        {
          "internalType": "string",
          "name": "",
          "type": "string"
        }
      ],
      "stateMutability": "view",
      "type": "function"
    },
    {
      "inputs": [
        {
          "internalType": "address",
          "name": "owner",
          "type": "address"
        }
      ],
      "name": "nonces",
      "outputs": [
        {
          "internalType": "uint256",
          "name": "",
          "type": "uint256"
        }
      ],
      "stateMutability": "view",
      "type": "function"
    },
    {
      "inputs": [],
      "name": "owner",
      "outputs": [
        {
          "internalType": "address",
          "name": "",
          "type": "address"
        }
      ],
      "stateMutability": "view",
      "type": "function"
    },
    {
      "inputs": [],
      "name": "pause",
      "outputs": [],
      "stateMutability": "nonpayable",
      "type": "function"
    },
    {
      "inputs": [],
      "name": "paused",
      "outputs": [
        {
          "internalType": "bool",
          "name": "",
          "type": "bool"
        }
      ],
      "stateMutability": "view",
      "type": "function"
    },
    {
      "inputs": [
        {
          "internalType": "address",
          "name": "owner",
          "type": "address"
        },
        {
          "internalType": "address",
          "name": "spender",
          "type": "address"
        },
        {
          "internalType": "uint256",
          "name": "value",
          "type": "uint256"
        },
        {
          "internalType": "uint256",
          "name": "deadline",
          "type": "uint256"
        },
        {
          "internalType": "uint8",
          "name": "v",
          "type": "uint8"
        },
        {
          "internalType": "bytes32",
          "name": "r",
          "type": "bytes32"
        },
        {
          "internalType": "bytes32",
          "name": "s",
          "type": "bytes32"
        }
      ],
      "name": "permit",
      "outputs": [],
      "stateMutability": "nonpayable",
      "type": "function"
    },
    {
      "inputs": [],
      "name": "renounceOwnership",
      "outputs": [],
      "stateMutability": "nonpayable",
      "type": "function"
    },
    {
      "inputs": [],
      "name": "symbol",
      "outputs": [
        {
          "internalType": "string",
          "name": "",
          "type": "string"
        }
      ],
      "stateMutability": "view",
      "type": "function"
    },
    {
      "inputs": [],
      "name": "totalSupply",
      "outputs": [
        {
          "internalType": "uint256",
          "name": "",
          "type": "uint256"
        }
      ],
      "stateMutability": "view",
      "type": "function"
    },
    {
      "inputs": [
        {
          "internalType": "address",
          "name": "to",
          "type": "address"
        },
        {
          "internalType": "uint256",
          "name": "value",
          "type": "uint256"
        }
      ],
      "name": "transfer",
      "outputs": [
        {
          "internalType": "bool",
          "name": "",
          "type": "bool"
        }
      ],
      "stateMutability": "nonpayable",
      "type": "function"
    },
    {
      "inputs": [
        {
          "internalType": "address",
          "name": "from",
          "type": "address"
        },
        {
          "internalType": "address",
          "name": "to",
          "type": "address"
        },
        {
          "internalType": "uint256",
          "name": "value",
          "type": "uint256"
        }
      ],
      "name": "transferFrom",
      "outputs": [
        {
          "internalType": "bool",
          "name": "",
          "type": "bool"
        }
      ],
      "stateMutability": "nonpayable",
      "type": "function"
    },
    {
      "inputs": [
        {
          "internalType": "address",
          "name": "newOwner",
          "type": "address"
        }
      ],
      "name": "transferOwnership",
      "outputs": [],
      "stateMutability": "nonpayable",
      "type": "function"
    },
    {
      "inputs": [],
      "name": "unpause",
      "outputs": [],
      "stateMutability": "nonpayable",
      "type": "function"
    }
  ],
  "bytecode": "0x6101806040523480156200001257600080fd5b5060405162001b1e38038062001b1e83398101604081905262000035916200054f565b33816040518060400160405280600c81526020016b26b2b73a30b6102a37b5b2b760a11b81525080604051806040016040528060018152602001603160f81b8152506040518060400160405280600c81526020016b26b2b73a30b6102a37b5b2b760a11b8152506040518060400160405280600681526020016513515395105360d21b8152508160039081620000cc919062000618565b506004620000db828262000618565b50620000ed9150839050600662000253565b61012052620000fe81600762000253565b61014052815160208084019190912060e052815190820120610100524660a0526200018c60e05161010051604080517f8b73c3c69bb8fe3d512ecc4cf759cc79239f7b179b0ffacaa9a75d522b39400f60208201529081019290925260608201524660808201523060a082015260009060c00160405160208183030381529060405280519060200120905090565b60805250503060c052506000819003620001c15760405163392e1e2760e01b8152600060048201526024015b60405180910390fd5b610160526001600160a01b038116620001f157604051631e4fbdf760e01b815260006004820152602401620001b8565b620001fc816200028c565b50808211156200023f5760405162461bcd60e51b815260206004820152600d60248201526c0496e697469616c203e2063617609c1b6044820152606401620001b8565b6200024b3383620002de565b50506200077b565b600060208351101562000273576200026b836200031c565b905062000286565b8162000280848262000618565b5060ff90505b92915050565b600980546001600160a01b038381166001600160a01b0319831681179093556040519116919082907f8be0079c531659141344cd1fd0a4f28419497f9722a3daafe3b4186f6b6457e090600090a35050565b6001600160a01b0382166200030a5760405163ec442f0560e01b815260006004820152602401620001b8565b62000318600083836200035f565b5050565b600080829050601f815111156200034a578260405163305a27a960e01b8152600401620001b89190620006e4565b8051620003578262000734565b179392505050565b6200036c83838362000371565b505050565b6200037e838383620003de565b6001600160a01b0383166200036c5760006200039a6101605190565b90506000620003a860025490565b905081811115620003d75760405163279e7e1560e21b81526004810182905260248101839052604401620001b8565b5050505050565b620003e8620003f5565b6200036c8383836200041c565b60055460ff16156200041a5760405163d93c066560e01b815260040160405180910390fd5b565b6001600160a01b0383166200044b5780600260008282546200043f919062000759565b90915550620004bf9050565b6001600160a01b03831660009081526020819052604090205481811015620004a05760405163391434e360e21b81526001600160a01b03851660048201526024810182905260448101839052606401620001b8565b6001600160a01b03841660009081526020819052604090209082900390555b6001600160a01b038216620004dd57600280548290039055620004fc565b6001600160a01b03821660009081526020819052604090208054820190555b816001600160a01b0316836001600160a01b03167fddf252ad1be2c89b69c2b068fc378daa952ba7f163c4a11628f55a4df523b3ef836040516200054291815260200190565b60405180910390a3505050565b600080604083850312156200056357600080fd5b505080516020909101519092909150565b634e487b7160e01b600052604160045260246000fd5b600181811c908216806200059f57607f821691505b602082108103620005c057634e487b7160e01b600052602260045260246000fd5b50919050565b601f8211156200036c57600081815260208120601f850160051c81016020861015620005ef5750805b601f850160051c820191505b818110156200061057828155600101620005fb565b505050505050565b81516001600160401b0381111562000634576200063462000574565b6200064c816200064584546200058a565b84620005c6565b602080601f8311600181146200068457600084156200066b5750858301515b600019600386901b1c1916600185901b17855562000610565b600085815260208120601f198616915b82811015620006b55788860151825594840194600190910190840162000694565b5085821015620006d45787850151600019600388901b60f8161c191681555b5050505050600190811b01905550565b600060208083528351808285015260005b818110156200071357858101830151858201604001528201620006f5565b506000604082860101526040601f19601f8301168501019250505092915050565b80516020808301519190811015620005c05760001960209190910360031b1b16919050565b808201808211156200028657634e487b7160e01b600052601160045260246000fd5b60805160a05160c05160e05161010051610120516101405161016051611336620007e8600039600081816101c90152610e4701526000610a4e01526000610a210152600061084f0152600061082701526000610782015260006107ac015260006107d601526113366000f3fe608060405234801561001057600080fd5b506004361061014d5760003560e01c806370a08231116100c35780638da5cb5b1161007c5780638da5cb5b146102aa57806395d89b41146102c5578063a9059cbb146102cd578063d505accf146102e0578063dd62ed3e146102f3578063f2fde38b1461032c57600080fd5b806370a0823114610230578063715018a61461025957806379cc6790146102615780637ecebe00146102745780638456cb591461028757806384b0196e1461028f57600080fd5b8063355274ea11610115578063355274ea146101c75780633644e515146101ed5780633f4ba83a146101f557806340c10f19146101ff57806342966c68146102125780635c975abb1461022557600080fd5b806306fdde0314610152578063095ea7b31461017057806318160ddd1461019357806323b872dd146101a5578063313ce567146101b8575b600080fd5b61015a61033f565b6040516101679190611083565b60405180910390f35b61018361017e3660046110b9565b6103d1565b6040519015158152602001610167565b6002545b604051908152602001610167565b6101836101b33660046110e3565b6103eb565b60405160128152602001610167565b7f0000000000000000000000000000000000000000000000000000000000000000610197565b61019761040f565b6101fd61041e565b005b6101fd61020d3660046110b9565b610430565b6101fd61022036600461111f565b610446565b60055460ff16610183565b61019761023e366004611138565b6001600160a01b031660009081526020819052604090205490565b6101fd610453565b6101fd61026f3660046110b9565b610465565b610197610282366004611138565b61047a565b6101fd610498565b6102976104a8565b6040516101679796959493929190611153565b6009546040516001600160a01b039091168152602001610167565b61015a6104ee565b6101836102db3660046110b9565b6104fd565b6101fd6102ee3660046111e9565b61050b565b61019761030136600461125c565b6001600160a01b03918216600090815260016020908152604080832093909416825291909152205490565b6101fd61033a366004611138565b61064a565b60606003805461034e9061128f565b80601f016020809104026020016040519081016040528092919081815260200182805461037a9061128f565b80156103c75780601f1061039c576101008083540402835291602001916103c7565b820191906000526020600020905b8154815290600101906020018083116103aa57829003601f168201915b5050505050905090565b6000336103df818585610685565b60019150505b92915050565b6000336103f9858285610697565b610404858585610716565b506001949350505050565b6000610419610775565b905090565b6104266108a0565b61042e6108cd565b565b6104386108a0565b610442828261091f565b5050565b6104503382610955565b50565b61045b6108a0565b61042e600061098b565b610470823383610697565b6104428282610955565b6001600160a01b0381166000908152600860205260408120546103e5565b6104a06108a0565b61042e6109dd565b6000606080600080600060606104bc610a1a565b6104c4610a47565b60408051600080825260208201909252600f60f81b9b939a50919850469750309650945092509050565b60606004805461034e9061128f565b6000336103df818585610716565b834211156105345760405163313c898160e11b8152600481018590526024015b60405180910390fd5b60007f6e71edae12b1b97f4d1f60370fef10105fa2faae0126114a169c64845d6126c98888886105818c6001600160a01b0316600090815260086020526040902080546001810190915590565b6040805160208101969096526001600160a01b0394851690860152929091166060840152608083015260a082015260c0810186905260e00160405160208183030381529060405280519060200120905060006105dc82610a74565b905060006105ec82878787610aa1565b9050896001600160a01b0316816001600160a01b031614610633576040516325c0072360e11b81526001600160a01b0380831660048301528b16602482015260440161052b565b61063e8a8a8a610685565b50505050505050505050565b6106526108a0565b6001600160a01b03811661067c57604051631e4fbdf760e01b81526000600482015260240161052b565b6104508161098b565b6106928383836001610acf565b505050565b6001600160a01b03838116600090815260016020908152604080832093861683529290522054600019811015610710578181101561070157604051637dc7a0d960e11b81526001600160a01b0384166004820152602481018290526044810183905260640161052b565b61071084848484036000610acf565b50505050565b6001600160a01b03831661074057604051634b637e8f60e11b81526000600482015260240161052b565b6001600160a01b03821661076a5760405163ec442f0560e01b81526000600482015260240161052b565b610692838383610ba4565b6000306001600160a01b037f0000000000000000000000000000000000000000000000000000000000000000161480156107ce57507f000000000000000000000000000000000000000000000000000000000000000046145b156107f857507f000000000000000000000000000000000000000000000000000000000000000090565b610419604080517f8b73c3c69bb8fe3d512ecc4cf759cc79239f7b179b0ffacaa9a75d522b39400f60208201527f0000000000000000000000000000000000000000000000000000000000000000918101919091527f000000000000000000000000000000000000000000000000000000000000000060608201524660808201523060a082015260009060c00160405160208183030381529060405280519060200120905090565b6009546001600160a01b0316331461042e5760405163118cdaa760e01b815233600482015260240161052b565b6108d5610baf565b6005805460ff191690557f5db9ee0a495bf2e6ff9c91a7834c1ba4fdd244a5e8aa4e537bd38aeae4b073aa335b6040516001600160a01b03909116815260200160405180910390a1565b6001600160a01b0382166109495760405163ec442f0560e01b81526000600482015260240161052b565b61044260008383610ba4565b6001600160a01b03821661097f57604051634b637e8f60e11b81526000600482015260240161052b565b61044282600083610ba4565b600980546001600160a01b038381166001600160a01b0319831681179093556040519116919082907f8be0079c531659141344cd1fd0a4f28419497f9722a3daafe3b4186f6b6457e090600090a35050565b6109e5610bd2565b6005805460ff191660011790557f62e78cea01bee320cd4e420270b5ea74000d11b0c9f74754ebdbfc544b05a2586109023390565b60606104197f00000000000000000000000000000000000000000000000000000000000000006006610bf6565b60606104197f00000000000000000000000000000000000000000000000000000000000000006007610bf6565b60006103e5610a81610775565b8360405161190160f01b8152600281019290925260228201526042902090565b600080600080610ab388888888610ca1565b925092509250610ac38282610d70565b50909695505050505050565b6001600160a01b038416610af95760405163e602df0560e01b81526000600482015260240161052b565b6001600160a01b038316610b2357604051634a1406b160e11b81526000600482015260240161052b565b6001600160a01b038085166000908152600160209081526040808320938716835292905220829055801561071057826001600160a01b0316846001600160a01b03167f8c5be1e5ebec7d5bd14f71427d1e84f3dd0314c0f7b2291e5b200ac8c7c3b92584604051610b9691815260200190565b60405180910390a350505050565b610692838383610e29565b60055460ff1661042e57604051638dfc202b60e01b815260040160405180910390fd5b60055460ff161561042e5760405163d93c066560e01b815260040160405180910390fd5b606060ff8314610c1057610c0983610e99565b90506103e5565b818054610c1c9061128f565b80601f0160208091040260200160405190810160405280929190818152602001828054610c489061128f565b8015610c955780601f10610c6a57610100808354040283529160200191610c95565b820191906000526020600020905b815481529060010190602001808311610c7857829003601f168201915b505050505090506103e5565b600080807f7fffffffffffffffffffffffffffffff5d576e7357a4501ddfe92f46681b20a0841115610cdc5750600091506003905082610d66565b604080516000808252602082018084528a905260ff891692820192909252606081018790526080810186905260019060a0016020604051602081039080840390855afa158015610d30573d6000803e3d6000fd5b5050604051601f1901519150506001600160a01b038116610d5c57506000925060019150829050610d66565b9250600091508190505b9450945094915050565b6000826003811115610d8457610d846112c9565b03610d8d575050565b6001826003811115610da157610da16112c9565b03610dbf5760405163f645eedf60e01b815260040160405180910390fd5b6002826003811115610dd357610dd36112c9565b03610df45760405163fce698f760e01b81526004810182905260240161052b565b6003826003811115610e0857610e086112c9565b03610442576040516335e2f38360e21b81526004810182905260240161052b565b610e34838383610ed8565b6001600160a01b038316610692576002547f00000000000000000000000000000000000000000000000000000000000000009081811115610e925760405163279e7e1560e21b8152600481018290526024810183905260440161052b565b5050505050565b60606000610ea683610eeb565b604080516020808252818301909252919250600091906020820181803683375050509182525060208101929092525090565b610ee0610bd2565b610692838383610f13565b600060ff8216601f8111156103e557604051632cd44ac360e21b815260040160405180910390fd5b6001600160a01b038316610f3e578060026000828254610f3391906112df565b90915550610fb09050565b6001600160a01b03831660009081526020819052604090205481811015610f915760405163391434e360e21b81526001600160a01b0385166004820152602481018290526044810183905260640161052b565b6001600160a01b03841660009081526020819052604090209082900390555b6001600160a01b038216610fcc57600280548290039055610feb565b6001600160a01b03821660009081526020819052604090208054820190555b816001600160a01b0316836001600160a01b03167fddf252ad1be2c89b69c2b068fc378daa952ba7f163c4a11628f55a4df523b3ef8360405161103091815260200190565b60405180910390a3505050565b6000815180845260005b8181101561106357602081850181015186830182015201611047565b506000602082860101526020601f19601f83011685010191505092915050565b602081526000611096602083018461103d565b9392505050565b80356001600160a01b03811681146110b457600080fd5b919050565b600080604083850312156110cc57600080fd5b6110d58361109d565b946020939093013593505050565b6000806000606084860312156110f857600080fd5b6111018461109d565b925061110f6020850161109d565b9150604084013590509250925092565b60006020828403121561113157600080fd5b5035919050565b60006020828403121561114a57600080fd5b6110968261109d565b60ff60f81b881681526000602060e08184015261117360e084018a61103d565b8381036040850152611185818a61103d565b606085018990526001600160a01b038816608086015260a0850187905284810360c0860152855180825283870192509083019060005b818110156111d7578351835292840192918401916001016111bb565b50909c9b505050505050505050505050565b600080600080600080600060e0888a03121561120457600080fd5b61120d8861109d565b965061121b6020890161109d565b95506040880135945060608801359350608088013560ff8116811461123f57600080fd5b9699959850939692959460a0840135945060c09093013592915050565b6000806040838503121561126f57600080fd5b6112788361109d565b91506112866020840161109d565b90509250929050565b600181811c908216806112a357607f821691505b6020821081036112c357634e487b7160e01b600052602260045260246000fd5b50919050565b634e487b7160e01b600052602160045260246000fd5b808201808211156103e557634e487b7160e01b600052601160045260246000fdfea26469706673582212205cd370313df333960486d860655a5f9a1aabaa0deae502c8de2c7f3aac892ce064736f6c63430008140033",
  "linkReferences": {},
  "deployedLinkReferences": {}
}